{
    "_format": "hh-sol-artifact-1",
    "contractName": "place",
    "sourceName": "contracts/Lock.sol",
    "abi": [
        {
            "inputs": [
                {
                    "internalType": "address",
                    "name": "from_",
                    "type": "address"
                }
            ],
            "stateMutability": "nonpayable",
            "type": "constructor"
        },
        {
            "inputs": [],
            "name": "getLastOwnerIndex",
            "outputs": [
                {
                    "internalType": "uint256",
                    "name": "",
                    "type": "uint256"
                }
            ],
            "stateMutability": "view",
            "type": "function"
        },
        {
            "inputs": [],
            "name": "getOwnerHistory",
            "outputs": [
                {
                    "internalType": "address[]",
                    "name": "",
                    "type": "address[]"
                }
            ],
            "stateMutability": "view",
            "type": "function"
        },
        {
            "inputs": [
                {
                    "internalType": "uint256",
                    "name": "",
                    "type": "uint256"
                }
            ],
            "name": "historyOwnership",
            "outputs": [
                {
                    "internalType": "address",
                    "name": "",
                    "type": "address"
                }
            ],
            "stateMutability": "view",
            "type": "function"
        },
        {
            "inputs": [],
            "name": "owner",
            "outputs": [
                {
                    "internalType": "address payable",
                    "name": "",
                    "type": "address"
                }
            ],
            "stateMutability": "view",
            "type": "function"
        },
        {
            "inputs": [],
            "name": "ownershipCounter",
            "outputs": [
                {
                    "internalType": "uint256",
                    "name": "",
                    "type": "uint256"
                }
            ],
            "stateMutability": "view",
            "type": "function"
        },
        {
            "inputs": [
                {
                    "internalType": "uint256",
                    "name": "value_val",
                    "type": "uint256"
                }
            ],
            "name": "setValue",
            "outputs": [],
            "stateMutability": "nonpayable",
            "type": "function"
        },
        {
            "inputs": [],
            "name": "transaction",
            "outputs": [],
            "stateMutability": "payable",
            "type": "function"
        },
        {
            "inputs": [],
            "name": "value",
            "outputs": [
                {
                    "internalType": "uint256",
                    "name": "",
                    "type": "uint256"
                }
            ],
            "stateMutability": "view",
            "type": "function"
        }
    ],
    "bytecode": "0x60806040523480156200001157600080fd5b5060405162000c7138038062000c71833981810160405281019062000037919062000195565b600180146200004b576200004a620001c7565b5b600060038190555080600160006101000a81548173ffffffffffffffffffffffffffffffffffffffff021916908373ffffffffffffffffffffffffffffffffffffffff160217905550600160009054906101000a900473ffffffffffffffffffffffffffffffffffffffff1660026000600354815260200190815260200160002060006101000a81548173ffffffffffffffffffffffffffffffffffffffff021916908373ffffffffffffffffffffffffffffffffffffffff160217905550600360008154809291906200011f906200022f565b9190505550506200027c565b600080fd5b600073ffffffffffffffffffffffffffffffffffffffff82169050919050565b60006200015d8262000130565b9050919050565b6200016f8162000150565b81146200017b57600080fd5b50565b6000815190506200018f8162000164565b92915050565b600060208284031215620001ae57620001ad6200012b565b5b6000620001be848285016200017e565b91505092915050565b7f4e487b7100000000000000000000000000000000000000000000000000000000600052600160045260246000fd5b7f4e487b7100000000000000000000000000000000000000000000000000000000600052601160045260246000fd5b6000819050919050565b60006200023c8262000225565b91507fffffffffffffffffffffffffffffffffffffffffffffffffffffffffffffffff8203620002715762000270620001f6565b5b600182019050919050565b6109e5806200028c6000396000f3fe60806040526004361061007b5760003560e01c8063552410771161004e578063552410771461013e5780638da5cb5b1461016757806391a99d2c14610192578063c99de57e146101bd5761007b565b80630141307a1461008057806307c538d0146100ab578063298ccd6c146100d65780633fa4f24514610113575b600080fd5b34801561008c57600080fd5b506100956101c7565b6040516100a29190610594565b60405180910390f35b3480156100b757600080fd5b506100c06101cd565b6040516100cd919061069f565b60405180910390f35b3480156100e257600080fd5b506100fd60048036038101906100f891906106f2565b6102c7565b60405161010a919061072e565b60405180910390f35b34801561011f57600080fd5b506101286102fa565b6040516101359190610594565b60405180910390f35b34801561014a57600080fd5b50610165600480360381019061016091906106f2565b610300565b005b34801561017357600080fd5b5061017c61039a565b604051610189919061076a565b60405180910390f35b34801561019e57600080fd5b506101a76103c0565b6040516101b49190610594565b60405180910390f35b6101c56103ca565b005b60035481565b6060600060035467ffffffffffffffff8111156101ed576101ec610785565b5b60405190808252806020026020018201604052801561021b5781602001602082028036833780820191505090505b50905060005b6003548110156102bf576002600082815260200190815260200160002060009054906101000a900473ffffffffffffffffffffffffffffffffffffffff16828281518110610272576102716107b4565b5b602002602001019073ffffffffffffffffffffffffffffffffffffffff16908173ffffffffffffffffffffffffffffffffffffffff168152505080806102b790610812565b915050610221565b508091505090565b60026020528060005260406000206000915054906101000a900473ffffffffffffffffffffffffffffffffffffffff1681565b60005481565b3373ffffffffffffffffffffffffffffffffffffffff16600160009054906101000a900473ffffffffffffffffffffffffffffffffffffffff1673ffffffffffffffffffffffffffffffffffffffff1614610390576040517f08c379a0000000000000000000000000000000000000000000000000000000008152600401610387906108b7565b60405180910390fd5b8060008190555050565b600160009054906101000a900473ffffffffffffffffffffffffffffffffffffffff1681565b6000600354905090565b600054341461040e576040517f08c379a000000000000000000000000000000000000000000000000000000000815260040161040590610923565b60405180910390fd5b6000600160009054906101000a900473ffffffffffffffffffffffffffffffffffffffff1673ffffffffffffffffffffffffffffffffffffffff166108fc479081150290604051600060405180830381858888f193505050509050806104a9576040517f08c379a00000000000000000000000000000000000000000000000000000000081526004016104a09061098f565b60405180910390fd5b33600160006101000a81548173ffffffffffffffffffffffffffffffffffffffff021916908373ffffffffffffffffffffffffffffffffffffffff160217905550600160009054906101000a900473ffffffffffffffffffffffffffffffffffffffff1660026000600354815260200190815260200160002060006101000a81548173ffffffffffffffffffffffffffffffffffffffff021916908373ffffffffffffffffffffffffffffffffffffffff1602179055506003600081548092919061057390610812565b919050555050565b6000819050919050565b61058e8161057b565b82525050565b60006020820190506105a96000830184610585565b92915050565b600081519050919050565b600082825260208201905092915050565b6000819050602082019050919050565b600073ffffffffffffffffffffffffffffffffffffffff82169050919050565b6000610606826105db565b9050919050565b610616816105fb565b82525050565b6000610628838361060d565b60208301905092915050565b6000602082019050919050565b600061064c826105af565b61065681856105ba565b9350610661836105cb565b8060005b83811015610692578151610679888261061c565b975061068483610634565b925050600181019050610665565b5085935050505092915050565b600060208201905081810360008301526106b98184610641565b905092915050565b600080fd5b6106cf8161057b565b81146106da57600080fd5b50565b6000813590506106ec816106c6565b92915050565b600060208284031215610708576107076106c1565b5b6000610716848285016106dd565b91505092915050565b610728816105fb565b82525050565b6000602082019050610743600083018461071f565b92915050565b6000610754826105db565b9050919050565b61076481610749565b82525050565b600060208201905061077f600083018461075b565b92915050565b7f4e487b7100000000000000000000000000000000000000000000000000000000600052604160045260246000fd5b7f4e487b7100000000000000000000000000000000000000000000000000000000600052603260045260246000fd5b7f4e487b7100000000000000000000000000000000000000000000000000000000600052601160045260246000fd5b600061081d8261057b565b91507fffffffffffffffffffffffffffffffffffffffffffffffffffffffffffffffff820361084f5761084e6107e3565b5b600182019050919050565b600082825260208201905092915050565b7f4163636573732044656e69656400000000000000000000000000000000000000600082015250565b60006108a1600d8361085a565b91506108ac8261086b565b602082019050919050565b600060208201905081810360008301526108d081610894565b9050919050565b7f496e76616c696400000000000000000000000000000000000000000000000000600082015250565b600061090d60078361085a565b9150610918826108d7565b602082019050919050565b6000602082019050818103600083015261093c81610900565b9050919050565b7f496e76616c69642073656e740000000000000000000000000000000000000000600082015250565b6000610979600c8361085a565b915061098482610943565b602082019050919050565b600060208201905081810360008301526109a88161096c565b905091905056fea2646970667358221220a13a5a6727acf72637bd89b1aa8ef0044341242337645a3cc19d059d4635f7bd64736f6c63430008130033",
    "linkReferences": {},
    "deployedLinkReferences": {}
}